:1000000000308A0084280000FF00030E8301A10055
:100010007F08A0000A08A7008A01A00E0408A20019
:100020007708A3007808A4007908A5007A08A6003C
:10003000831383128B1E1E280B193D28220884006F
:100040002308F7002408F8002508F9002608FA001C
:1000500027088A00210E8300FF0E7F0E09000A1078
:100060008A100A1182073F3406345B344F346634F9
:100070006D347D3407347F346F34AC0A2C08023C75
:10008000031CAC012C0803194C28013A031954280D
:10009000033A03195C2863282A08AB0083168501FC
:1000A00001308312850063282908AB00831685017F
:1000B00002308312850063282808AB00831685016F
:1000C0000430831285002B082F20AE008316860192
:1000D00083122E0886000B110B118A111E282D3059
:1000E000840083130008031983280130F800F70106
:1000F000F70B7828F80B77284A30F700F70B7E28A3
:100100008128800B7528CD2803081F3983008316AA
:100110008E1501308312A8000830A900AA01AB0196
:10012000AC0107309F00831383160108C0390438DF
:100130008100831290010030F80092000030831695
:100140009200073083129F00831605088500023055
:10015000F700F70BA928AC28000083121F080C1326
:1001600083169F0183128B16C0308B04AA0A2A08BB
:10017000093C0318BD28AA01A90A2908093C03184B
:10018000C328A901A80A2808093C0318CA28A801FD
:0E019000A901AA01FA30AD006F28B62863005D
:02400E00183F59
:00000001FF
;PIC16F628A
;CRC=2CCA  CREATED="03-nov-17 01:38"
